{
  "contractName": "SafelySend",
  "abi": [
    {
      "inputs": [],
      "stateMutability": "nonpayable",
      "type": "constructor"
    },
    {
      "inputs": [],
      "name": "accumTips",
      "outputs": [
        {
          "internalType": "uint256",
          "name": "",
          "type": "uint256"
        }
      ],
      "stateMutability": "view",
      "type": "function",
      "constant": true
    },
    {
      "inputs": [
        {
          "internalType": "address",
          "name": "",
          "type": "address"
        },
        {
          "internalType": "uint256",
          "name": "",
          "type": "uint256"
        }
      ],
      "name": "fromMap",
      "outputs": [
        {
          "internalType": "uint256",
          "name": "",
          "type": "uint256"
        }
      ],
      "stateMutability": "view",
      "type": "function",
      "constant": true
    },
    {
      "inputs": [],
      "name": "nextId",
      "outputs": [
        {
          "internalType": "uint256",
          "name": "",
          "type": "uint256"
        }
      ],
      "stateMutability": "view",
      "type": "function",
      "constant": true
    },
    {
      "inputs": [],
      "name": "owner",
      "outputs": [
        {
          "internalType": "address",
          "name": "",
          "type": "address"
        }
      ],
      "stateMutability": "view",
      "type": "function",
      "constant": true
    },
    {
      "inputs": [
        {
          "internalType": "address",
          "name": "",
          "type": "address"
        },
        {
          "internalType": "uint256",
          "name": "",
          "type": "uint256"
        }
      ],
      "name": "toMap",
      "outputs": [
        {
          "internalType": "uint256",
          "name": "",
          "type": "uint256"
        }
      ],
      "stateMutability": "view",
      "type": "function",
      "constant": true
    },
    {
      "inputs": [
        {
          "internalType": "uint256",
          "name": "",
          "type": "uint256"
        }
      ],
      "name": "transactionMap",
      "outputs": [
        {
          "internalType": "uint256",
          "name": "sentTime",
          "type": "uint256"
        },
        {
          "internalType": "address",
          "name": "from",
          "type": "address"
        },
        {
          "internalType": "address",
          "name": "to",
          "type": "address"
        },
        {
          "internalType": "uint256",
          "name": "amount",
          "type": "uint256"
        },
        {
          "internalType": "uint256",
          "name": "unlockTime",
          "type": "uint256"
        },
        {
          "internalType": "bool",
          "name": "done",
          "type": "bool"
        }
      ],
      "stateMutability": "view",
      "type": "function",
      "constant": true
    },
    {
      "inputs": [
        {
          "internalType": "address",
          "name": "aToAddress",
          "type": "address"
        },
        {
          "internalType": "uint256",
          "name": "aDelayTime",
          "type": "uint256"
        },
        {
          "internalType": "uint256",
          "name": "aTip",
          "type": "uint256"
        }
      ],
      "name": "sendTransaction",
      "outputs": [],
      "stateMutability": "payable",
      "type": "function",
      "payable": true
    },
    {
      "inputs": [
        {
          "internalType": "uint256",
          "name": "aTransactionId",
          "type": "uint256"
        }
      ],
      "name": "withdrawTransaction",
      "outputs": [],
      "stateMutability": "nonpayable",
      "type": "function"
    },
    {
      "inputs": [
        {
          "internalType": "address",
          "name": "aToAddress",
          "type": "address"
        }
      ],
      "name": "checkTransactionsWaitingReceiver",
      "outputs": [
        {
          "internalType": "uint256[]",
          "name": "",
          "type": "uint256[]"
        }
      ],
      "stateMutability": "view",
      "type": "function",
      "constant": true
    },
    {
      "inputs": [
        {
          "internalType": "address",
          "name": "aFromAddress",
          "type": "address"
        }
      ],
      "name": "checkTransactionsWaitingSender",
      "outputs": [
        {
          "internalType": "uint256[]",
          "name": "",
          "type": "uint256[]"
        }
      ],
      "stateMutability": "view",
      "type": "function",
      "constant": true
    },
    {
      "inputs": [
        {
          "internalType": "uint256",
          "name": "aTransactionId",
          "type": "uint256"
        }
      ],
      "name": "abortTransaction",
      "outputs": [],
      "stateMutability": "nonpayable",
      "type": "function"
    },
    {
      "inputs": [],
      "name": "withdrawTips",
      "outputs": [],
      "stateMutability": "nonpayable",
      "type": "function"
    },
    {
      "inputs": [
        {
          "internalType": "address",
          "name": "newOwner",
          "type": "address"
        }
      ],
      "name": "transferOwner",
      "outputs": [],
      "stateMutability": "nonpayable",
      "type": "function"
    }
  ],
  "bytecode": "0x608060405234801561001057600080fd5b506000808055600255600180546001600160a01b03191633179055610f3d8061003a6000396000f3fe6080604052600436106100d25760003560e01c80638da5cb5b1161007f578063ce1ec6a211610059578063ce1ec6a21461022d578063d21ba465146102e3578063d4f7f36c146102f9578063fcfca2d41461031957600080fd5b80638da5cb5b146101a8578063af133021146101fa578063cb08c3421461020d57600080fd5b80634fb2e45d116100b05780634fb2e45d1461014457806361b8ce8c14610164578063882a14481461018857600080fd5b8063058ec70f146100d75780633aaa74b21461010d5780633ed0bbba14610124575b600080fd5b3480156100e357600080fd5b506100f76100f2366004610dcd565b610339565b6040516101049190610def565b60405180910390f35b34801561011957600080fd5b506101226103b2565b005b34801561013057600080fd5b5061012261013f366004610e33565b61048e565b34801561015057600080fd5b5061012261015f366004610dcd565b610685565b34801561017057600080fd5b5061017a60005481565b604051908152602001610104565b34801561019457600080fd5b506101226101a3366004610e33565b6107ca565b3480156101b457600080fd5b506001546101d59073ffffffffffffffffffffffffffffffffffffffff1681565b60405173ffffffffffffffffffffffffffffffffffffffff9091168152602001610104565b610122610208366004610e4c565b610aa3565b34801561021957600080fd5b506100f7610228366004610dcd565b610ce0565b34801561023957600080fd5b5061029b610248366004610e33565b6003602081905260009182526040909120805460018201546002830154938301546004840154600590940154929473ffffffffffffffffffffffffffffffffffffffff9283169492169290919060ff1686565b6040805196875273ffffffffffffffffffffffffffffffffffffffff9586166020880152939094169285019290925260608401526080830152151560a082015260c001610104565b3480156102ef57600080fd5b5061017a60025481565b34801561030557600080fd5b5061017a610314366004610e7f565b610d57565b34801561032557600080fd5b5061017a610334366004610e7f565b610d88565b73ffffffffffffffffffffffffffffffffffffffff81166000908152600560209081526040918290208054835181840281018401909452808452606093928301828280156103a657602002820191906000526020600020905b815481526020019060010190808311610392575b50505050509050919050565b60015473ffffffffffffffffffffffffffffffffffffffff163314610438576040517f08c379a000000000000000000000000000000000000000000000000000000000815260206004820152601c60248201527f4f6e6c79206f776e65722063616e20776974686472617720746970730000000060448201526064015b60405180910390fd5b60028054600091829055600154604051919273ffffffffffffffffffffffffffffffffffffffff9091169183156108fc0291849190818181858888f1935050505015801561048a573d6000803e3d6000fd5b5050565b600081815260036020818152604092839020835160c08101855281548152600182015473ffffffffffffffffffffffffffffffffffffffff908116938201849052600283015416948101949094529182015460608401526004820154608084015260059091015460ff16151560a0830152331461058d576040517f08c379a000000000000000000000000000000000000000000000000000000000815260206004820152602960248201527f4f6e6c79207468652073656e6465722063616e2072657665727420612074726160448201527f6e73616374696f6e2e0000000000000000000000000000000000000000000000606482015260840161042f565b60a0810151156105f9576040517f08c379a000000000000000000000000000000000000000000000000000000000815260206004820152601e60248201527f5472616e73616374696f6e20616c72656164792070726f6365737365642e0000604482015260640161042f565b600082815260036020908152604080832060050180547fffffffffffffffffffffffffffffffffffffffffffffffffffffffffffffff00166001179055908301516060840151915173ffffffffffffffffffffffffffffffffffffffff9091169282156108fc02929190818181858888f19350505050158015610680573d6000803e3d6000fd5b505050565b60015473ffffffffffffffffffffffffffffffffffffffff163314610706576040517f08c379a000000000000000000000000000000000000000000000000000000000815260206004820152601b60248201527f6f6e6c79206f776e65722063616e206368616e6765206f776e65720000000000604482015260640161042f565b73ffffffffffffffffffffffffffffffffffffffff8116610783576040517f08c379a000000000000000000000000000000000000000000000000000000000815260206004820152601f60248201527f646f6e277420736574206f776e657220746f206e756c6c206164647265737300604482015260640161042f565b600180547fffffffffffffffffffffffff00000000000000000000000000000000000000001673ffffffffffffffffffffffffffffffffffffffff92909216919091179055565b600081815260036020818152604092839020835160c08101855281548152600182015473ffffffffffffffffffffffffffffffffffffffff908116938201939093526002820154909216938201939093529082015460608201526004820154608082015260059091015460ff1615801560a08301526108cb576040517f08c379a000000000000000000000000000000000000000000000000000000000815260206004820152602c60248201527f54686973207472616e73616374696f6e2068617320616c72656164792062656560448201527f6e20636f6d706c657465642e0000000000000000000000000000000000000000606482015260840161042f565b806080015142101561095f576040517f08c379a000000000000000000000000000000000000000000000000000000000815260206004820152602260248201527f5472616e73616374696f6e2063616e27742062652077697468647261776e207960448201527f6574000000000000000000000000000000000000000000000000000000000000606482015260840161042f565b806040015173ffffffffffffffffffffffffffffffffffffffff163373ffffffffffffffffffffffffffffffffffffffff1614610a1e576040517f08c379a000000000000000000000000000000000000000000000000000000000815260206004820152602b60248201527f4f6e6c792072656365697665722063616e20776974686472617720746869732060448201527f7472616e73616374696f6e000000000000000000000000000000000000000000606482015260840161042f565b60008281526003602052604080822060050180547fffffffffffffffffffffffffffffffffffffffffffffffffffffffffffffff00166001179055828101516060840151915173ffffffffffffffffffffffffffffffffffffffff9091169282156108fc02929190818181858888f19350505050158015610680573d6000803e3d6000fd5b6000610aaf8234610ed8565b90506000610abd8442610eef565b905034821115610b29576040517f08c379a000000000000000000000000000000000000000000000000000000000815260206004820152600e60248201527f6f766572666c6f77206572726f72000000000000000000000000000000000000604482015260640161042f565b42811015610b93576040517f08c379a000000000000000000000000000000000000000000000000000000000815260206004820152600e60248201527f6f766572666c6f77206572726f72000000000000000000000000000000000000604482015260640161042f565b6040805160c08101825242815233602080830182815273ffffffffffffffffffffffffffffffffffffffff8a8116858701818152606087018a8152608088018a8152600060a08a01818152815482526003808a528c83208c51815598516001808b0180547fffffffffffffffffffffffff0000000000000000000000000000000000000000908116938c1693909317905596516002808c01805490931691909a1617905593519388019390935590516004808801919091559151600596870180547fffffffffffffffffffffffffffffffffffffffffffffffffffffffffffffff001691151591909117905596875285528786208654815480840183559188528688209091015590855291835294832083548154928301825590845291909220909101559054610cc4908590610eef565b600255600054610cd5906001610eef565b600055505050505050565b73ffffffffffffffffffffffffffffffffffffffff81166000908152600460209081526040918290208054835181840281018401909452808452606093928301828280156103a657602002820191906000526020600020908154815260200190600101908083116103925750505050509050919050565b60046020528160005260406000208181548110610d7357600080fd5b90600052602060002001600091509150505481565b60056020528160005260406000208181548110610d7357600080fd5b803573ffffffffffffffffffffffffffffffffffffffff81168114610dc857600080fd5b919050565b600060208284031215610ddf57600080fd5b610de882610da4565b9392505050565b6020808252825182820181905260009190848201906040850190845b81811015610e2757835183529284019291840191600101610e0b565b50909695505050505050565b600060208284031215610e4557600080fd5b5035919050565b600080600060608486031215610e6157600080fd5b610e6a84610da4565b95602085013595506040909401359392505050565b60008060408385031215610e9257600080fd5b610e9b83610da4565b946020939093013593505050565b7f4e487b7100000000000000000000000000000000000000000000000000000000600052601160045260246000fd5b600082821015610eea57610eea610ea9565b500390565b60008219821115610f0257610f02610ea9565b50019056fea2646970667358221220dbffa13369ff3cafeca1a51d1327190586482452e5b5bedbabf8704faffb242564736f6c634300080b0033",
  "immutableReferences": {},
  "source": "// SPDX-License-Identifier: MIT\npragma solidity >=0.4.22 <0.9.0;\n\ncontract SafelySend {\n\n  struct Transaction {\n    uint sentTime;\n    address from;\n    address to;\n    uint amount;\n    uint unlockTime;\n    bool done;\n  }\n\n  uint public nextId;\n  address public owner;\n  uint public accumTips;\n  mapping(uint => Transaction) public transactionMap; //all transactions mapped to their uniqueId\n  mapping(address => uint[]) public fromMap; //all transactionIds for which the \"from\" address is this address\n  mapping(address => uint[]) public toMap; //all transactionIds for which the \"to\" address is this address\n\n  constructor() {\n    nextId = 0;\n    accumTips = 0;\n    owner = msg.sender;\n  }\n\n  function sendTransaction(address aToAddress, uint aDelayTime, uint aTip) public payable {\n    uint transactionVal = msg.value - aTip;\n    uint activeTime = block.timestamp + aDelayTime;\n    require(transactionVal <= msg.value, \"overflow error\");\n    require(activeTime >= block.timestamp, \"overflow error\");\n\n    Transaction memory newTx = Transaction(block.timestamp, msg.sender, aToAddress, transactionVal, activeTime, false);\n    transactionMap[nextId] = newTx;\n    fromMap[msg.sender].push(nextId);\n    toMap[aToAddress].push(nextId);\n\n    accumTips = accumTips + aTip;\n    nextId = nextId + 1;\n  }\n\n  function withdrawTransaction(uint aTransactionId) public {\n    Transaction memory thisTx = transactionMap[aTransactionId];\n    require(thisTx.done == false, \"This transaction has already been completed.\");\n    require(block.timestamp >= thisTx.unlockTime, \"Transaction can't be withdrawn yet\");\n    require(msg.sender == thisTx.to, \"Only receiver can withdraw this transaction\");\n\n    transactionMap[aTransactionId].done = true;\n    payable(thisTx.to).transfer(thisTx.amount);\n  }\n\n  function checkTransactionsWaitingReceiver(address aToAddress) public view returns (uint[] memory) {\n    return toMap[aToAddress];\n  }\n\n  function checkTransactionsWaitingSender(address aFromAddress) public view returns (uint[] memory) {\n    return fromMap[aFromAddress];\n  }\n\n  function abortTransaction(uint aTransactionId) public {\n    Transaction memory thisTx = transactionMap[aTransactionId];\n    require(msg.sender == thisTx.from, \"Only the sender can revert a transaction.\");\n    require(thisTx.done == false, \"Transaction already processed.\");\n\n    transactionMap[aTransactionId].done = true;\n    payable(thisTx.from).transfer(thisTx.amount);\n  }\n\n  function withdrawTips() public {\n    require(msg.sender == owner, \"Only owner can withdraw tips\");\n    uint temp = accumTips;\n    accumTips = 0;\n    payable(owner).transfer(temp);\n  }\n\n  function transferOwner(address newOwner) public {\n    require(msg.sender == owner, \"only owner can change owner\");\n    require(newOwner != address(0), \"don't set owner to null address\");\n    owner = newOwner;\n  }\n}\n",
  "sourcePath": "/Users/Kyle/Documents/safelysend/contract/contracts/SafelySend.sol",
  "compiler": {
    "name": "solc",
    "version": "0.8.11+commit.d7f03943.Emscripten.clang"
  },
  "schemaVersion": "3.4.4",
  "updatedAt": "2022-07-22T04:46:10.126Z",
  "networkType": "ethereum",
  "devdoc": {
    "kind": "dev",
    "methods": {},
    "version": 1
  },
  "userdoc": {
    "kind": "user",
    "methods": {},
    "version": 1
  }
}